S02B0000737972696E676520646574656374696F6E2044696120526973696E6720616E642046616C6C696E670A
S11300000C94C1000C94E0000C94E0000C94E0000B
S11300100C94E0000C94E0000C94E0000C94E000DC
S11300200C94E0000C94E0000C94E0000C94E000CC
S11300300C94E0000C94E0000C94E0000C94E000BC
S11300400C94E0000C94E0000C94E0000C94E000AC
S11300500C94E0000C94E0000C94E0000C94E0009C
S11300600C94E0000C94E0000C94E0000C94E0008C
S11300700C94E0000C9464020C94E0000C94E000F6
S11300800C94E0000C94E0000C94E0000C94E0006C
S11300900C94E0000C94E0000C94E0000C94E0005C
S11300A00C94E0000C94E0000C94E0000C94E0004C
S11300B00C94E0000C94E0000C94E0000C94E0003C
S11300C00C94E0000C94E0000C94E0000C94E0002C
S11300D00C94E0000C94E0000C94E0000C94E0001C
S11300E00C94E0000C94E0000C94E0000C94E0000C
S11300F00C94E0000C94E0000C94E0000C94E000FC
S113010007634236B79BD8A71A39685618AEBAABFC
S1130110558C1D3CB7CC5763BD6DEDFD753EF61790
S11301207231BF000000803F08000000BE922449E5
S1130130123EABAAAA2ABECDCCCC4C3E0000008015
S1130140BEABAAAAAA3E00000000BF000000803F88
S11301500000000000084178D3BB4387D1133D1948
S11301600E3CC3BD4282AD2B3E68EC8276BED98F75
S1130170E1A93E4C80EFFFBE01C4FF7F3F000000B9
S1130180000011241FBECFEFCDBFDFE7DEBF10E4B8
S1130190A0E0B0E4E8E4FDE000E00BBF02C007909B
S11301A00D92A233B107D9F720E4A2E3B0E401C071
S11301B01D92A536B207E1F70E94BD020C94A20677
S11301C00C9400006150710920E030E00EC0DC01A5
S11301D0A20FB31F4C91FC01E60FF71F50815C93F3
S11301E040832F5F3F4F61507109261737077CF317
S11301F00895CF92DF92EF92FF920F931F93CF93C4
S1130200DF938A016901C0E0D0E011C07801EC0EEF
S1130210FD1E2AE030E040E050E00E946106605D8F
S1130220F7016083622F732F842F952F2196611518
S113023071058105910551F706C0F801EC0FFD1F0A
S113024080E380832196CC15DD05BCF3BE01C80193
S11302500E94E200F801EC0FFD1F1082CE01DF9135
S1130260CF911F910F91FF90EF90DF90CF90089561
S11302708F929F92AF92BF92CF92DF92EF92FF92B2
S11302800F931F93CF93DF934B015C018A01E90124
S11302900E94AB036B01770FEE08FF08C701B6019C
S11302A00E94E3039B01AC01C501B4010E94CC028E
S11302B04B015C0120E030E0A801C701B6010E94B7
S11302C0F9007C01209749F1F801E80FF91F8EE24B
S11302D08083BE010D2E000C880B990B0E94E30352
S11302E09B01AC0160E070E080E291E40E94DC04D8
S11302F09B01AC01C501B4010E946F042FEFE21A07
S1130300F20A0E94AB03A8014E0D5F1D072E000CDC
S1130310880B990B9E010E94F900DF91CF911F91E8
S11303200F91FF90EF90DF90CF90BF90AF909F9090
S11303308F900895E0E4F4E020812D7F20832081D4
S113034021602083BC0180E090E00E94E10320E072
S113035030E040E851E40E946F049B01AC0160E08E
S113036074E284E79DE40E94390320E030E040E039
S11303705FE30E94CD020E94B203E0E2F8E06087EE
S113038071878681806C868308959091240895FFF7
S1130390FCCF8093220808950F931F93CF93DF938C
S11303A08C01C0E0D0E007C0F801EC0FFD1F808194
S11303B00E94C5012196F80101900020E9F73197C8
S11303C0E01BF10BCE17DF0778F38AE00E94C5012A
S11303D0DF91CF911F910F91089520E030E043E326
S11303E050E40E94F90083E390E40E94CC01089554
S11303F09A0143E350E40E94380183E390E40E94AD
S1130400CC01089585E88093A000E0E0F6E081E067
S113041082838083089581E080930A0608958093FF
S113042008060E940B0280910D0680FFFCCF80918C
S11304301006909111060895CF92DF92EF92FF92E9
S1130440CF93DF93C1E0D0E0C12CD12C760112C050
S113045083E00E940F02BC01990F880B990B0E9444
S1130460E3039B01AC01C701B6010E94CD026B01FD
S11304707C012196C333D1055CF320E030E048E4ED
S113048052E4C701B6010E94390322E638E94DED72
S11304905BE30E946F042CE937E14CEA50E40E94CC
S11304A0CD026B017C0180E090E40E94CC0142E02B
S11304B050E0C701B6010E94F801DF91CF91FF908F
S11304C0EF90DF90CF9008951F920F920FB60F9286
S11304D011240BB60F922F933F934F935F936F9317
S11304E07F938F939F93AF93BF93EF93FF938091E9
S11304F049048823CCF480913240882339F0109247
S113050032408FE090E40E94CC0109C081E08093E6
S113051032408FE190E40E94CC010E941C02E0E48E
S1130520F4E0818580688187FF91EF91BF91AF915D
S11305309F918F917F916F915F914F913F912F91F7
S11305400F900BBE0F900FBE0F901F9018958091C7
S1130550480488231CF41092324007C08091480458
S113056088231CF081E0809332406091324070E037
S113057080E090E00E94ED010895789480E895E28F
S11305800E949A010E9402020E94A702E0E4F4E0A1
S113059087898960878BFFCF5058BB27AA270E9481
S11305A0E4020C9435040E94270438F00E942E04BF
S11305B020F039F49F3F19F426F40C9424040EF42B
S11305C0E095E7FB0C941E04E92F0E94460458F3BF
S11305D0BA17620773078407950720F079F4A6F524
S11305E00C9468040EF4E0950B2EBA2FA02D0B0189
S11305F0B90190010C01CA01A0011124FF27591B64
S113060099F0593F50F4503E68F11A16F040A22F69
S1130610232F342F4427585FF3CF469537952795DA
S1130620A795F0405395C9F77EF41F16BA0B620BD9
S1130630730B840BBAF09150A1F0FF0FBB1F661F20
S1130640771F881FC2F70EC0BA0F621F731F841F63
S113065048F4879577956795B795F7959E3F08F089
S1130660B0CF9395880F08F09927EE0F979587954B
S113067008950E944D030C9435040E942E0458F0F2
S11306800E94270440F029F45F3F29F00C941E04D3
S113069051110C9469040C9424040E94460468F3D8
S11306A09923B1F3552391F3951B550BBB27AA2727
S11306B062177307840738F09F5F5F4F220F331F61
S11306C0441FAA1FA9F335D00E2E3AF0E0E832D029
S11306D091505040E695001CCAF72BD0FE2F29D02C
S11306E0660F771F881FBB1F261737074807AB07FE
S11306F0B0E809F0BB0B802DBF01FF2793585F4F73
S11307003AF09E3F510578F00C941E040C94690451
S11307105F3FE4F3983ED4F3869577956795B79554
S1130720F7959F5FC9F7880F911D9695879597F95F
S11307300895E1E0660F771F881FBB1F62177307D8
S11307408407BA0720F0621B730B840BBA0BEE1FED
S113075088F7E09508950E94B2036894B1110C944F
S1130760690408950E944E0488F09F5798F0B92FA9
S11307709927B751B0F0E1F0660F771F881F991FD2
S11307801AF0BA95C9F714C0B13091F00E94680408
S1130790B1E008950C946804672F782F8827B85F18
S11307A039F0B93FCCF3869577956795B395D9F72A
S11307B03EF490958095709561957F4F8F4F9F4F34
S11307C00895E89409C097FB3EF490958095709540
S11307D061957F4F8F4F9F4F9923A9F0F92F96E989
S11307E0BB279395F695879577956795B795F111FE
S11307F0F8CFFAF4BB0F11F460FF1BC06F5F7F4F9B
S11308008F4F9F4F16C0882311F096E911C07723AC
S113081021F09EE8872F762F05C0662371F096E8B5
S1130820862F70E060E02AF09A95660F771F881F84
S1130830DAF7880F9695879597F9089597F99F6742
S113084080E870E060E008959FEF80EC0895002454
S11308500A941616170618060906089500240A9421
S113086012161306140605060895092E0394000CA7
S113087011F4882352F0BB0F40F4BF2B11F460FF36
S113088004C06F5F7F4F8F4F9F4F089557FD90585F
S1130890440F551F59F05F3F71F04795880F97FB40
S11308A0991F61F09F3F79F08795089512161306FA
S11308B01406551FF2CF4695F1DF08C01616170629
S11308C01806991FF1CF869571056105089408955E
S11308D0E894BB2766277727CB0197F908950E94F0
S11308E082040C9435040E94270438F00E942E04DC
S11308F020F0952311F00C941E040C94240411246C
S11309000C9469040E94460470F3959FC1F3950FFB
S113091050E0551F629FF001729FBB27F00DB11D7F
S1130920639FAA27F00DB11DAA1F649F6627B00D0F
S1130930A11D661F829F2227B00DA11D621F739FF8
S1130940B00DA11D621F839FA00D611D221F749F06
S11309503327A00D611D231F849F600D211D822F4D
S1130960762F6A2F11249F5750409AF0F1F0882374
S11309704AF0EE0FFF1FBB1F661F771F881F9150A1
S11309805040A9F79E3F510580F00C941E040C942E
S113099069045F3FE4F3983ED4F3869577956795B1
S11309A0B795F795E7959F5FC1F7FE2B880F911DCB
S11309B09695879597F90895FA01EE0FFF1F3096E3
S11309C021053105A1F16115710561F48038BFE39A
S11309D09B0749F168949038810561F08038BFEF36
S11309E09B0741F099234AF5FF3FE10531052105B5
S11309F019F1E8940894E795D901AA2329F4AB2FB7
S1130A00BE2FF85FD0F310C0FF5F70F4A695E0F737
S1130A10F73950F019F0FF3A38F49F779F930DD0CF
S1130A200F9007FC9058089546F00C94240460E05D
S1130A3070E080E89FE308954FE79F775F934F93BB
S1130A403F932F930E94D7052F913F914F915F9130
S1130A500E946F040C94340529F416F00C941E04BF
S1130A600C9468040C9424040E944E04A8F3963851
S1130A70A0F707F80F92E8942BE33AEA48EB5FE714
S1130A800E9485040F920F920F924DB75EB70F929A
S1130A900E941F06E0E0F1E00E9466054F915F911D
S1130AA0EF91FF91E595EE1FFF1F49F0FE57E068B7
S1130AB04427EE0F441FFA95E1F74195550B0E9428
S1130AC099050F9007FE0C948D050895DF93CF933D
S1130AD01F930F93FF92EF92DF927B018C01689436
S1130AE006C0DA2EEF010E948204FE01E894A5916B
S1130AF02591359145915591A6F3EF010E94E402A9
S1130B00FE019701A801DA9469F7DF90EF90FF9056
S1130B100F911F91CF91DF9108959B01AC0160E08B
S1130B2070E080E89FE30C9439030C941E040C9449
S1130B3053060E944E04D8F39923C9F3940F511D10
S1130B40A3F39150504094F059F0882332F0660F8B
S1130B50771F881F91505040C1F79E3F51052CF7D5
S1130B60880F911D9695879597F908955F3FACF08E
S1130B70983E9CF0BB27869577956795B79508F4C2
S1130B80B1609395C1F7BB0F58F711F460FFE8CF3C
S1130B906F5F7F4F8F4F9F4FE3CF0C94690416F024
S1130BA00C9453060C94240468940C941E040E9420
S1130BB04E04A8F39923C1F3AEF3DF93CF931F93AD
S1130BC00F93FF92C92FDD2788232AF02197660F00
S1130BD0771F881FDAF720E030E040E85FEB9FE3FF
S1130BE0883920F0803E38F021968F770E94CD021C
S1130BF0E8E2F1E004C00E94CD02E5E5F1E00E94E4
S1130C0066058B01BE01EC01FB2E6F5771097595CA
S1130C10771F880B990B0E94E30328E132E741E335
S1130C205FE30E948204AF2D9801AE01FF900F9103
S1130C301F91CF91DF910E94E4020C943504FA01D4
S1130C40DC01AA0FBB1F9B01AC01BF5728F422276C
S1130C5033274427507820C0B75190F4AB2F002499
S1130C60469537952795011CA395D2F3002071F082
S1130C70220F331F441FB395DAF30ED00C94CC0229
S1130C8061307105A0E88A07B94630F49B01AC01D4
S1130C906627772788279078309621F02083318340
S1130CA04283538308959F3F31F0915020F48795F8
S1130CB077956795B795880F911D9695879597F9C0
S1130CC00895052E97FB1EF400940E94780657FDA4
S1130CD007D00E94800607FC03D04EF40C947806DB
S1130CE050954095309521953F4F4F4F5F4F089554
S1130CF090958095709561957F4F8F4F9F4F089584
S1130D00A1E21A2EAA1BBB1BFD010DC0AA1FBB1F0B
S1130D10EE1FFF1FA217B307E407F50720F0A21B7D
S1130D20B30BE40BF50B661F771F881F991F1A94EA
S1130D3069F760957095809590959B01AC01BD0114
S10B0D40CF010895F894FFCFE0
S1130D484469616D657465722073697A653A0073E4
S1130D587972696E67652072656D6F766564007374
S1130D687972696E676520636F6E6E656374656416
S1050D780A006B
S9030000FC
